:020000040800F2
:1000000000500020FD030008A1030008AD03000814
:10001000B5030008BD030008C50300080000000088
:10002000000000000000000000000000CD030008F8
:10003000D903000800000000E5030008F1030008F0
:100040004D0400084D0400084D0400084D0400084C
:100050004D0400084D0400084D0400084D0400083C
:100060004D0400084D0400084D0400084D0400082C
:100070004D0400084D0400084D0400084D0400081C
:100080004D0400084D0400084D0400084D0400080C
:100090004D0400084D0400084D0400084D040008FC
:1000A0004D0400084D0400084D0400084D040008EC
:1000B0004D0400084D0400084D0400084D040008DC
:1000C0004D0400084D0400084D0400084D040008CC
:1000D0004D0400084D0400084D0400084D040008BC
:1000E0004D0400084D040008000000004D04000805
:1000F0004D0400084D0400084D0400084D0400089C
:100100004D0400084D0400084D0400084D0400088B
:100110004D0400084D0400084D0400084D0400087B
:100120004D0400084D0400084D0400084D0400086B
:1001300010B5054C237833B9044B13B10448AFF321
:1001400000800123237010BD00000020000000008B
:100150009804000808B5034B1BB103490348AFF3EB
:10016000008008BD00000000040000209804000882
:1001700080B500AF154B1B68144A43F001031360B0
:10018000124B5A681149124B13404B600F4B1B68BE
:100190000E4A23F0847323F4803313600B4B1B68E7
:1001A0000A4A23F480231360084B5B68074A23F450
:1001B000FE035360054B4FF41F029A6000F00CF8E9
:1001C000044B4FF000629A6000BF80BD00100240F7
:1001D0000000FFF800ED00E080B500AF00F002F88D
:1001E00000BF80BD80B483B000AF00237B600023DC
:1001F0003B603A4B1B68394A43F480331360374BFA
:100200001B6803F400333B607B6801337B603B6811
:10021000002B03D17B68B3F5A06FF0D12F4B1B6887
:1002200003F40033002B02D001233B6001E00023E4
:100230003B603B68012B4BD1294B1B68284A43F09C
:1002400010031360264B1B68254A23F00703136035
:10025000234B1B68224A43F0020313601F4B1F4AC3
:100260005B6853601D4B1D4A5B6853601B4B5B68AA
:100270001A4A43F480635360184B5B68174A23F4AF
:100280007C135360154B5B68144A43F4E8135360C6
:10029000124B1B68114A43F08073136000BF0F4B71
:1002A0001B6803F00073002BF9D00C4B5B680B4A02
:1002B00023F003035360094B5B68084A43F00203D1
:1002C000536000BF054B5B6803F00C03082BF9D1AA
:1002D00000BF0C37BD4680BC704700BF0010024015
:1002E0000020024080B400AF074B9B69064A43F0F0
:1002F00010039361054B1B68044A43F043031360EA
:1003000000BFBD4680BC704700100240000801409D
:1003100080B485B000AF78607A681346DB00134480
:10032000BB60BB68FB6002E0FB68013BFB60FB68F5
:10033000002BF9DA00BF00BF1437BD4680BC704700
:1003400080B582B000AF7860094BDB68084A43F0A3
:100350000103D3607868FFF7DBFF054BDB68044AD5
:1003600023F00103D36000BF0837BD4680BD00BF46
:100370000008014080B582B000AFFFF7B3FF0A204C
:10038000FFF7DEFF00237B6002E07B6801337B60C8
:100390007B68024A9342F8DDF1E700BF9F860100C7
:1003A00080B400AF00BFBD4680BC704780B400AFD2
:1003B00000BFFDE780B400AF00BFFDE780B400AF31
:1003C00000BFFDE780B400AF00BFFDE780B400AF21
:1003D00000BFBD4680BC704780B400AF00BFBD46C3
:1003E00080BC704780B400AF00BFBD4680BC704782
:1003F00080B400AF00BFBD4680BC70470D48854645
:10040000FFF7B6FE0C480D490D4A002302E0D45810
:10041000C4500433C4188C42F9D30A4A0A4C00234E
:1004200001E013600432A242FBD300F011F8FFF7A1
:10043000A1FFFEE700500020000000200000002087
:10044000B8040008000000201C000020FEE70000A7
:1004500070B500260C4D0D4C641BA410A64209D1AA
:1004600000F01AF800260A4D0A4C641BA410A6429C
:1004700005D170BD55F8043B98470136EEE755F8B5
:10048000043B98470136F2E7B0040008B0040008C6
:10049000B0040008B4040008F8B500BFF8BC08BCFC
:1004A0009E467047F8B500BFF8BC08BC9E46704732
:0404B00055010008EA
:0404B400310100080A
:04000005080003FDEF
:00000001FF
