:020000040800F2
:1000000000500020890400082D040008390400086D
:1000100041040008490400085104000800000000E1
:10002000000000000000000000000000590400086B
:100030006504000800000000710400087D04000849
:10004000D9040008D9040008D9040008D90400081C
:10005000D9040008D9040008D9040008D90400080C
:10006000D9040008D9040008D9040008D9040008FC
:10007000D9040008D9040008D9040008D9040008EC
:10008000D9040008D9040008D9040008D9040008DC
:10009000D9040008D9040008D9040008D9040008CC
:1000A000D9040008D9040008D9040008D9040008BC
:1000B000D9040008D9040008D9040008D9040008AC
:1000C000D9040008D9040008D9040008D90400089C
:1000D000D9040008D9040008D9040008D90400088C
:1000E000D9040008D904000800000000D904000861
:1000F000D9040008D9040008D9040008D90400086C
:10010000D9040008D9040008D9040008D90400085B
:10011000D9040008D9040008D9040008D90400084B
:10012000D9040008D9040008D9040008D90400083B
:1001300010B5054C237833B9044B13B10448AFF321
:1001400000800123237010BD00000020000000008B
:100150002405000808B5034B1BB103490348AFF35E
:10016000008008BD000000000400002024050008F5
:1001700080B500AF154B1B68144A43F001031360B0
:10018000124B5A681149124B13404B600F4B1B68BE
:100190000E4A23F0847323F4803313600B4B1B68E7
:1001A0000A4A23F480231360084B5B68074A23F450
:1001B000FE035360054B4FF41F029A6000F00CF8E9
:1001C000044B4FF000629A6000BF80BD00100240F7
:1001D0000000FFF800ED00E080B500AF00F002F88D
:1001E00000BF80BD80B483B000AF00237B600023DC
:1001F0003B603A4B1B68394A43F480331360374BFA
:100200001B6803F400333B607B6801337B603B6811
:10021000002B03D17B68B3F5A06FF0D12F4B1B6887
:1002200003F40033002B02D001233B6001E00023E4
:100230003B603B68012B4BD1294B1B68284A43F09C
:1002400010031360264B1B68254A23F00703136035
:10025000234B1B68224A43F0020313601F4B1F4AC3
:100260005B6853601D4B1D4A5B6853601B4B5B68AA
:100270001A4A43F480635360184B5B68174A23F4AF
:100280007C135360154B5B68144A43F4E8135360C6
:10029000124B1B68114A43F08073136000BF0F4B71
:1002A0001B6803F00073002BF9D00C4B5B680B4A02
:1002B00023F003035360094B5B68084A43F00203D1
:1002C000536000BF054B5B6803F00C03082BF9D1AA
:1002D00000BF0C37BD4680BC704700BF0010024015
:1002E0000020024080B400AF0C4B9B690B4A43F4E2
:1002F000804343F004039361094B5B68084A43F46D
:1003000094635360074B41F64C521A81054B42F2FD
:100310000C029A8100BFBD4680BC704700100240AD
:10032000000801400038014080B483B000AF0346AC
:10033000FB7100BF074B1B889BB203F08003002BAF
:10034000F8D0044BFA7992B29A8000BF0C37BD46C0
:1003500080BC70470038014080B485B000AF786041
:100360007B6842F2283202FB03F3BB60BB68FB6090
:1003700002E0FB68013BFB60FB68002BF9DA00BF81
:1003800000BF1437BD4680BC7047000080B582B006
:1003900000AFFFF7A7FF00237B6040E07B68092BDD
:1003A00011DC7B68DBB23033DBB21846FFF7BCFFF1
:1003B0000D20FFF7B9FF0A20FFF7B6FF4FF47A7060
:1003C000FFF7CAFF28E07B68174A82FB03129210EE
:1003D000DB17D31ADBB23033DBB21846FFF7A4FFCA
:1003E0007A68114B83FB02139910D317C91A0B4675
:1003F0009B000B445B00D11ACBB23033DBB2184602
:10040000FFF792FF0D20FFF78FFF0A20FFF78CFF09
:100410004FF47A70FFF7A0FF7B6801337B607B6845
:10042000142BBBDDB7E700BF6766666680B400AF1C
:1004300000BFBD4680BC704780B400AF00BFFDE781
:1004400080B400AF00BFFDE780B400AF00BFFDE7A0
:1004500080B400AF00BFFDE780B400AF00BFBD4671
:1004600080BC704780B400AF00BFBD4680BC704701
:1004700080B400AF00BFBD4680BC704780B400AF01
:1004800000BFBD4680BC70470D488546FFF770FE33
:100490000C480D490D4A002302E0D458C4500433DF
:1004A000C4188C42F9D30A4A0A4C002301E01360B5
:1004B0000432A242FBD300F011F8FFF767FFFEE71A
:1004C000005000200000002000000020440500082B
:1004D000000000201C000020FEE7000070B5002690
:1004E0000C4D0D4C641BA410A64209D100F01AF863
:1004F00000260A4D0A4C641BA410A64205D170BD0B
:1005000055F8043B98470136EEE755F8043B984709
:100510000136F2E73C0500083C0500083C050008F0
:1005200040050008F8B500BFF8BC08BC9E467047FF
:0C053000F8B500BFF8BC08BC9E46704740
:04053C00550100085D
:04054000310100087D
:040000050800048962
:00000001FF
