:020000040800F2
:1000000000500020FD1E0008291D0008351D0008B5
:100010003D1D0008451D00084D1D000800000000A2
:10002000000000000000000000000000551D000856
:10003000611D0008000000006D1D0008A1140008EB
:100040004D1F00084D1F00084D1F00084D1F0008E0
:100050004D1F00084D1F00084D1F00084D1F0008D0
:100060004D1F0008091500084D1F00084D1F00080E
:100070004D1F00084D1F00084D1F00084D1F0008B0
:100080004D1F00084D1F00084D1F00084D1F0008A0
:100090004D1F00084D1F00084D1F00087D1500086A
:1000A0004D1F00084D1F00084D1F00084D1F000880
:1000B0004D1F00084D1F00084D1F00084D1F000870
:1000C0004D1F00084D1F00084D1F00084D1F000860
:1000D0004D1F00084D1F00084D1F00084D1F000850
:1000E0004D1F00084D1F0008000000004D1F0008B4
:1000F0004D1F00084D1F00084D1F00084D1F000830
:100100004D1F00084D1F00084D1F00084D1F00081F
:100110004D1F00084D1F00084D1F00084D1F00080F
:100120004D1F00084D1F00084D1F00084D1F0008FF
:1001300010B5054C237833B9044B13B10448AFF321
:1001400000800123237010BDE801002000000000A2
:100150007048000808B5034B1BB103490348AFF3CF
:10016000008008BD00000000EC010020704800087D
:10017000034613F8012B002AFBD1181A01387047E7
:100180004FF0FF0C1CEAD0521EBF1CEAD15392EA7A
:100190000C0F93EA0C0F6FD01A4480EA010C400256
:1001A00018BF5FEA41211ED04FF0006343EA5010B0
:1001B00043EA5111A0FB01310CF00040B1F5000FF2
:1001C0003EBF490041EAD3715B0040EA010062F1A1
:1001D0007F02FD2A1DD8B3F1004F40EBC25008BF8B
:1001E00020F00100704790F0000F0CF0004C08BFA9
:1001F00049024CEA502040EA51207F3AC2BFD2F176
:10020000FF0340EAC250704740F400004FF0000383
:10021000013A5DDC12F1190FDCBF00F000407047BD
:10022000C2F10002410021FA02F1C2F1200200FAFB
:1002300002FC5FEA310040F1000053EA4C0308BFC2
:1002400020EADC70704792F0000F00F0004C02BF13
:10025000400010F4000F013AF9D040EA0C0093F08E
:10026000000F01F0004C02BF490011F4000F013BE8
:10027000F9D041EA0C018FE70CEAD15392EA0C0F56
:1002800018BF93EA0C0F0AD030F0004C18BF31F0C1
:10029000004CD8D180EA010000F00040704790F097
:1002A000000F17BF90F0004F084691F0000F91F03B
:1002B000004F14D092EA0C0F01D142020FD193EA01
:1002C0000C0F03D14B0218BF084608D180EA010089
:1002D00000F0004040F0FE4040F40000704740F065
:1002E000FE4040F44000704781F0004102E000BF52
:1002F00083F0004330B54FEA41044FEA430594EAE6
:10030000050F08BF90EA020F1FBF54EA000C55EA20
:10031000020C7FEA645C7FEA655C00F0E2804FEAF1
:100320005454D4EB5555B8BF6D420CDD2C4480EAD3
:10033000020281EA030382EA000083EA010180EA03
:10034000020281EA0303362D88BF30BD11F0004F51
:100350004FEA01314FF4801C4CEA113102D0404287
:1003600061EB410113F0004F4FEA03334CEA1333C2
:1003700002D0524263EB430394EA050F00F0A780DA
:10038000A4F10104D5F1200E0DDB02FA0EFC22FAD5
:1003900005F2801841F1000103FA0EF2801843FAC9
:1003A00005F359410EE0A5F120050EF1200E012ABA
:1003B00003FA0EFC28BF4CF0020C43FA05F3C018F8
:1003C00051EBE37101F0004507D54FF0000EDCF171
:1003D000000C7EEB00006EEB0101B1F5801F1BD31A
:1003E000B1F5001F0CD349085FEA30004FEA3C0C1E
:1003F00004F101044FEA445212F5800F80F09A8014
:10040000BCF1004F08BF5FEA500C50F1000041EB17
:10041000045141EA050130BD5FEA4C0C404141EB1B
:100420000101013C28BFB1F5801FE9D291F0000F16
:1004300004BF01460020B1FA81F308BF2033A3F1C5
:100440000B03B3F120020CDA0C3208DD02F1140CBC
:10045000C2F10C0201FA0CF021FA02F10CE002F1F7
:100460001402D8BFC2F1200C01FA02F120FA0CFCF0
:10047000DCBF41EA0C019040E41AA2BF01EB045139
:10048000294330BD6FEA04041F3C1CDA0C340EDC37
:1004900004F11404C4F1200220FA04F001FA02F37A
:1004A00040EA030021FA04F345EA030130BDC4F138
:1004B0000C04C4F1200220FA02F001FA04F340EA2D
:1004C0000300294630BD21FA04F0294630BD94F0DE
:1004D000000F83F4801306BF81F480110134013DC5
:1004E0004EE77FEA645C18BF7FEA655C29D094EA36
:1004F000050F08BF90EA020F05D054EA000C04BFB4
:100500001946104630BD91EA030F1EBF002100209E
:1005100030BD5FEA545C05D14000494128BF41F03D
:10052000004130BD14F580043CBF01F5801130BDA1
:1005300001F0004545F0FE4141F470014FF000002C
:1005400030BD7FEA645C1ABF194610467FEA655CDD
:100550001CBF0B46024650EA013406BF52EA03357F
:1005600091EA030F41F4002130BD00BF90F0000F6D
:1005700004BF0021704730B54FF4806404F13204A9
:100580004FF000054FF0000150E700BF90F0000F62
:1005900004BF0021704730B54FF4806404F1320489
:1005A00010F0004548BF40424FF000013EE700BF59
:1005B00042004FEAE2014FEA31014FEA02701FBFE9
:1005C00012F07F4393F07F4F81F06051704732F01B
:1005D0007F4208BF704793F07F4F04BF41F4002172
:1005E000704730B54FF4607401F0004521F00041D0
:1005F0001CE700BF50EA010208BF704730B54FF05A
:1006000000050AE050EA010208BF704730B511F05A
:10061000004502D5404261EB41014FF4806404F192
:1006200032045FEA915C3FF4D8AE4FF003025FEA18
:10063000DC0C18BF03325FEADC0C18BF033202EB9C
:10064000DC02C2F1200300FA03FC20FA02F001FAF6
:1006500003FE40EA0E0021FA02F11444BDE600BF99
:1006600070B54FF0FF0C4CF4E06C1CEA11541DBF48
:100670001CEA135594EA0C0F95EA0C0F00F0DEF813
:100680002C4481EA030621EA4C5123EA4C5350EAF8
:10069000013518BF52EA033541F4801143F4801349
:1006A00038D0A0FB02CE4FF00005E1FB02E506F0DA
:1006B0000042E0FB03E54FF00006E1FB03569CF02F
:1006C000000F18BF4EF0010EA4F1FF04B6F5007F35
:1006D00064F5407404D25FEA4E0E6D4146EB0606A7
:1006E00042EAC62141EA55514FEAC52040EA5E5030
:1006F0004FEACE2EB4F1FD0C88BFBCF5E06F1ED8DA
:10070000BEF1004F08BF5FEA500E50F1000041EB10
:10071000045170BD06F0004646EA010140EA0200BD
:1007200081EA0301B4EB5C04C2BFD4EB0C0541EADF
:10073000045170BD41F480114FF0000E013C00F3F4
:10074000AB8014F1360FDEBF002001F0004170BD18
:10075000C4F10004203C35DA0C341BDC04F1140431
:10076000C4F1200500FA05F320FA04F001FA05F2BD
:1007700040EA020001F0004221F0004110EBD3708A
:1007800021FA04F642EB06015EEA430E08BF20EAB6
:10079000D37070BDC4F10C04C4F1200500FA04F359
:1007A00020FA05F001FA04F240EA020001F00041EB
:1007B00010EBD37041F100015EEA430E08BF20EA5E
:1007C000D37070BDC4F1200500FA05F24EEA020EA6
:1007D00020FA04F301FA05F243EA020321FA04F0D5
:1007E00001F0004121FA04F220EA020000EBD3708C
:1007F0005EEA430E08BF20EAD37070BD94F0000F8C
:100800000FD101F00046400041EB010111F4801FBF
:1008100008BF013CF7D041EA060195F0000F18BF70
:10082000704703F00046520043EB030313F4801FAC
:1008300008BF013DF7D043EA0603704794EA0C0F66
:100840000CEA135518BF95EA0C0F0CD050EA41067C
:1008500018BF52EA4306D1D181EA030101F00041F9
:100860004FF0000070BD50EA410606BF1046194621
:1008700052EA430619D094EA0C0F02D150EA01362D
:1008800013D195EA0C0F05D152EA03361CBF10466E
:1008900019460AD181EA030101F0004141F0FE410D
:1008A00041F470014FF0000070BD41F0FE4141F491
:1008B000780170BD70B54FF0FF0C4CF4E06C1CEA91
:1008C00011541DBF1CEA135594EA0C0F95EA0C0F46
:1008D00000F0A7F8A4EB050481EA030E52EA033501
:1008E0004FEA013100F088804FEA03334FF0805522
:1008F00045EA131343EA12634FEA022245EA11154F
:1009000045EA10654FEA00260EF000419D4208BFFF
:10091000964244F1FD0404F5407402D25B084FEAAC
:100920003202B61A65EB03055B084FEA32024FF458
:1009300080104FF4002CB6EB020E75EB030E22BFB5
:10094000B61A754640EA0C005B084FEA3202B6EB75
:10095000020E75EB030E22BFB61A754640EA5C0024
:100960005B084FEA3202B6EB020E75EB030E22BFB4
:10097000B61A754640EA9C005B084FEA3202B6EBB5
:10098000020E75EB030E22BFB61A754640EADC0074
:1009900055EA060E18D04FEA051545EA16754FEAD6
:1009A00006164FEAC30343EA52734FEAC2025FEAF4
:1009B0001C1CC0D111F4801F0BD141EA00014FF083
:1009C00000004FF0004CB6E711F4801F04BF014354
:1009D0000020B4F1FD0C88BFBCF5E06F3FF6AFAE70
:1009E000B5EB030C04BFB6EB020C5FEA500C50F100
:1009F000000041EB045170BD0EF0004E4EEA113183
:100A000014EB5C04C2BFD4EB0C0541EA045170BD89
:100A100041F480114FF0000E013C90E645EA060ECD
:100A20008DE60CEA135594EA0C0F08BF95EA0C0FFB
:100A30003FF43BAF94EA0C0F0AD150EA01347FF443
:100A400034AF95EA0C0F7FF425AF104619462CE71A
:100A500095EA0C0F06D152EA03353FF4FDAE10467D
:100A6000194622E750EA410618BF52EA43067FF4CE
:100A7000C5AE50EA41047FF40DAF52EA43057FF45E
:100A8000EBAE12E74FF0FF3C06E000BF4FF0010C69
:100A900002E000BF4FF0010C4DF804CD4FEA410CCD
:100AA0007FEA6C5C4FEA430C18BF7FEA6C5C1BD09A
:100AB00001B050EA410C0CBF52EA430C91EA030F1B
:100AC00002BF90EA020F0020704710F1000F91EA78
:100AD000030F58BF994208BF90422CBFD8176FEA46
:100AE000E37040F0010070474FEA410C7FEA6C5C14
:100AF00002D150EA013C07D14FEA430C7FEA6C5C1B
:100B0000D6D152EA033CD3D05DF8040B704700BF46
:100B10008446104662468C461946634600E000BF94
:100B200001B5FFF7B7FF002848BF10F1000F01BD66
:100B30004DF808EDFFF7F4FF0CBF012000205DF831
:100B400008FB00BF4DF808EDFFF7EAFF34BF0120B6
:100B500000205DF808FB00BF4DF808EDFFF7E0FF4F
:100B600094BF012000205DF808FB00BF4DF808EDA0
:100B7000FFF7CEFF94BF012000205DF808FB00BF07
:100B80004DF808EDFFF7C4FF34BF012000205DF8E9
:100B900008FB00BF4FEA410C7FEA6C5C02D150EACF
:100BA000013C0AD14FEA430C7FEA6C5C02D152EA65
:100BB000033C02D14FF0000070474FF00100704736
:100BC0004FEA410212F5001215D211D56FF4787375
:100BD000B3EB625212D94FEAC12343F0004343EA18
:100BE000505311F0004F23FA02F018BF40427047F3
:100BF0004FF00000704750EA013005D111F000407D
:100C000008BF6FF0004070474FF00000704700BF12
:100C100080F0004002E000BF81F0004142001FBFB1
:100C20005FEA410392EA030F7FEA226C7FEA236CBA
:100C30006AD04FEA1262D2EB1363C1BFD2184140AF
:100C400048404140B8BF5B42192B88BF704710F045
:100C5000004F40F4000020F07F4018BF404211F0E8
:100C6000004F41F4000121F07F4118BF494292EA50
:100C7000030F3FD0A2F1010241FA03FC10EB0C007C
:100C8000C3F1200301FA03F100F0004302D5494209
:100C900060EB4000B0F5000F13D3B0F1807F06D3B6
:100CA00040084FEA310102F10102FE2A51D2B1F1AE
:100CB000004F40EBC25008BF20F0010040EA0300A3
:100CC0007047490040EB0000013A28BFB0F5000F23
:100CD000EDD2B0FA80FCACF1080CB2EB0C0200FAD9
:100CE0000CF0AABF00EBC25052421843BCBFD04028
:100CF0001843704792F0000F81F4000106BF80F4A2
:100D000000000132013BB5E74FEA41037FEA226C64
:100D100018BF7FEA236C21D092EA030F04D092F02F
:100D2000000F08BF0846704790EA010F1CBF002063
:100D3000704712F07F4F04D1400028BF40F00040C0
:100D4000704712F100723CBF00F50000704700F0E0
:100D5000004343F0FE4040F4000070477FEA226207
:100D600016BF08467FEA23630146420206BF5FEAD8
:100D7000412390EA010F40F4800070474FF00003D8
:100D800004E000BF10F0004348BF40425FEA000C9F
:100D900008BF704743F0964301464FF000001CE047
:100DA00050EA010208BF70474FF000030AE000BF9D
:100DB00050EA010208BF704711F0004302D54042DB
:100DC00061EB41015FEA010C02BF8446014600204D
:100DD00043F0B64308BFA3F18053A3F50003BCFA68
:100DE0008CF2083AA3EBC25310DB01FA02FC634415
:100DF00000FA02FCC2F12002BCF1004F20FA02F21C
:100E000043EB020008BF20F00100704702F120020E
:100E100001FA02FCC2F1200250EA4C0021FA02F26F
:100E200043EB020008BF20EADC7070474FF0FF3C44
:100E300006E000BF4FF0010C02E000BF4FF0010CD4
:100E40004DF804CD4FEA40024FEA41037FEA226C9D
:100E500018BF7FEA236C11D001B052EA530C18BFBF
:100E600090EA010F58BFB2EB030088BFC81738BF24
:100E70006FEAE17018BF40F0010070477FEA226C12
:100E800002D15FEA402C05D17FEA236CE4D15FEA0E
:100E9000412CE1D05DF8040B704700BF8446084642
:100EA0006146FFE70FB5FFF7C9FF002848BF10F103
:100EB000000F0FBD4DF808EDFFF7F4FF0CBF012048
:100EC00000205DF808FB00BF4DF808EDFFF7EAFFD2
:100ED00034BF012000205DF808FB00BF4DF808ED8D
:100EE000FFF7E0FF94BF012000205DF808FB00BF82
:100EF0004DF808EDFFF7D2FF94BF012000205DF808
:100F000008FB00BF4DF808EDFFF7C8FF34BF012014
:100F100000205DF808FB00BF80B500AF154B1B68D3
:100F2000144A43F001031360124B5A681149124BE3
:100F300013404B600F4B1B680E4A23F0847323F45D
:100F4000803313600B4B1B680A4A23F48023136021
:100F5000084B5B68074A23F4FE035360054B4FF4CC
:100F60001F029A6000F00CF8044B4FF000629A6088
:100F700000BF80BD001002400000FFF800ED00E05F
:100F800080B500AF00F002F800BF80BD80B483B030
:100F900000AF00237B6000233B603A4B1B68394A5B
:100FA00043F480331360374B1B6803F400333B601A
:100FB0007B6801337B603B68002B03D17B68B3F512
:100FC000A06FF0D12F4B1B6803F40033002B02D02D
:100FD00001233B6001E000233B603B68012B4BD1C8
:100FE000294B1B68284A43F010031360264B1B68EB
:100FF000254A23F007031360234B1B68224A43F062
:10100000020313601F4B1F4A5B6853601D4B1D4A50
:101010005B6853601B4B5B681A4A43F48063536000
:10102000184B5B68174A23F47C135360154B5B68BD
:10103000144A43F4E8135360124B1B68114A43F0FF
:101040008073136000BF0F4B1B6803F00073002B0D
:10105000F9D00C4B5B680B4A23F003035360094B38
:101060005B68084A43F00203536000BF054B5B68AE
:1010700003F00C03082BF9D100BF0C37BD4680BC30
:10108000704700BF001002400020024080B483B0CF
:1010900000AF0346FB71FB7903F01F03012202FA44
:1010A00003F1054A97F907305B0942F8231000BFA6
:1010B0000C37BD4680BC704700E100E080B483B0CF
:1010C00000AF03463960FB7197F90730002B0BDA4C
:1010D0003B68DAB20C49FB7903F00F03043B1201C1
:1010E000D2B20B441A7609E03B68DAB2074997F9A5
:1010F00007301201D2B20B4483F8002300BF0C3733
:10110000BD4680BC704700BF00ED00E000E100E09C
:1011100080B485B000AF7860084B1B68FB6000BFEF
:10112000064B1A68FB68D31A7A689A42F8D800BF4F
:1011300000BF1437BD4680BC704700BF04020020CA
:1011400080B400AF104BFD229A61104B1B680F4A10
:1011500043F4803343F4807313600C4B1B680B4AD9
:1011600043F4800343F480431360084B14225A6114
:10117000074B4FF033321A60054B4FF033325A6051
:1011800000BFBD4680BC704700100240000801400F
:10119000000C014080B400AF2A4BDB69294A43F0C0
:1011A0000103D361274B9B69264A43F40063936193
:1011B000254B1B68244A43F00B031360224B5B68EA
:1011C000214A43F00B0353604FF0804301221A84FD
:1011D0004FF080431B8B9BB24FF0804243F0600383
:1011E0009BB213834FF0804347221A854FF0804310
:1011F00044F61F629A854FF080434FF4FA729A8644
:101200004FF0804301221A80104B01221A840F4BA9
:101210001B8B9BB20D4A43F060039BB213830B4BB5
:101220008F221A85094B44F61F629A85074B4FF4AB
:10123000FA729A86054B01221A8000BFBD4680BC17
:10124000704700BF0010024000080140002C014020
:1012500080B485B000AF0346FB71FB79002B03D14E
:101260004FF47A73FB8109E0FB795A2B03D14FF4D9
:10127000C863FB8102E040F69803FB814FF0804297
:10128000FB89938600BF1437BD4680BC70470000C1
:1012900080B485B000AF0346FB71FB79002B03D10E
:1012A0004FF47A73FB8109E0FB795A2B03D140F2AA
:1012B000DC53FB8102E04FF4FA63FB81034AFB89B4
:1012C000938600BF1437BD4680BC7047002C014098
:1012D00080B500AF174B9B69164A43F00103936139
:1012E000154B154A9B689360134B134ADB68D36018
:1012F000124B9B68114A43F0280393600F4BDB6845
:101300000E4A43F02803D3600C4B1B680B4A43F092
:101310002803136001210920FFF7D0FE0920FFF701
:10132000B5FE01211720FFF7C9FE1720FFF7AEFE1B
:1013300000BF80BD001002400000014000040140D9
:1013400080B400AF064B40F20D125A60044B0022ED
:101350009A60034B03221A6000BFBD4680BC7047F1
:1013600010E000E080B400AF124B9B69114A43F4D7
:10137000804343F0040393610F4B5B680E4A23F4F0
:101380007F6353600C4B5B680B4A43F0B0035360C0
:101390000A4B41F64C521A81084B9B899BB2074A73
:1013A00043F4005343F008039BB2938100BFBD4652
:1013B00080BC704700100240000801400038014026
:1013C00080B483B000AF78600EE000BF0B4B1B8889
:1013D0009BB203F08003002BF8D07B681A78074B90
:1013E0009A807B6801337B607B681B78002BECD193
:1013F00000BF00BF0C37BD4680BC704700380140BD
:1014000080B483B000AF0346FB7100BF074B1B885D
:101410009BB203F08003002BF8D0044BFA7992B210
:101420009A8000BF0C37BD4680BC70470038014031
:1014300080B485B000AF0346FB80FB88154AA2FB51
:101440000323DB089BB21A46134B33F81230FB819F
:10145000FA88104BA3FB0213D9080B469B000B44E0
:101460005B00D31A9BB21A460B4B33F81230BB8188
:10147000B7F90C30DB011AB2B7F90E3013431BB2C7
:101480007B81064A7B89D36000BF1437BD4680BC90
:10149000704700BFCDCCCCCC00000020000C014038
:1014A00080B400AF134B1B680133124A1360124B18
:1014B0001B78012B1AD1114B1B6801330F4A1360A3
:1014C0000E4B1B684CF24F32934204D90C4B41F641
:1014D000BF72DA6002E00A4B0022DA60074B1B6839
:1014E000084A934202D9054B00221A6000BFBD464C
:1014F00080BC704704020020200200200802002067
:10150000000C01409F86010080B483B000AF154BF2
:1015100008225A61144B9B6803F00803002B04D087
:10152000124B1B68124A136017E0104B1B687B605C
:101530000F4B1B687A689A4206D30D4B1B687A687A
:10154000D31A0C4A136005E0094B1B687A68D31A5A
:10155000084A1360084B01221A7000BF0C37BD46C1
:1015600080BC7047000401400008014004020020D4
:10157000100200201C0200201502002080B483B05D
:1015800000AF154B20225A61144B9B6803F02003D7
:10159000002B04D0124B1B68124A136017E0104B4B
:1015A0001B687B600F4B1B687A689A4206D30D4B11
:1015B0001B687A68D31A0C4A136005E0094B1B6854
:1015C0007A68D31A084A1360084B01221A7000BFC8
:1015D0000C37BD4680BC7047000401400008014044
:1015E000040200200C020020180200201402002037
:1015F00080B586B000AFFFF7A3FDFFF7CBFDFFF787
:1016000067FEFFF79DFEFFF7ADFE0020FFF740FEEF
:10161000B420FFF71DFE0023FB758E4B1B88C3F122
:101620001403FB608B4B1B88C3F11403FB60894BD5
:101630001B88002B00F03682864B1B881846FFF76C
:10164000F7FEFB7D002B40F01B81834B1B78002BAA
:101650000BD1824B1B683B61814B10221A61012028
:10166000FFF756FD7E4B10225A617B4B1B78002BF7
:1016700000F0B3807B4B1B681846FFF77FFB0346E7
:1016800079491846FEF77CFD03461A46774B1A60E7
:10169000714B00221A707648FFF792FE6D4B1B8843
:1016A000C3F11403FB60FB68092B21D9FB68714A65
:1016B000A2FB0323DB08DBB23033DBB21846FFF7B3
:1016C0009FFEF9686B4BA3FB0123DA0813469B00CE
:1016D00013445B00CA1AD3B23033DBB21846FFF7AB
:1016E0008FFE0D20FFF78CFE0A20FFF789FE0CE02D
:1016F000FB68DBB23033DBB21846FFF781FE0D200A
:10170000FFF77EFE0A20FFF77BFE524B1B88002B63
:1017100024D0564B1B6858491846FFF7D5FB0346A3
:10172000002B14D04B4B1B88013B9AB2494B1A80BB
:10173000484B1B881846FFF77BFE5A20FFF788FDB1
:101740004E48FFF7E5FCB420FFF782FD06E0B42029
:10175000FFF77EFD42F21070FFF7DAFC3D4B1B886D
:10176000C3F11403FB604248FFF72AFEFB68092B14
:1017700021D9FB683F4AA2FB0323DB08DBB23033ED
:10178000DBB21846FFF73CFEF9683A4BA3FB012396
:10179000DA0813469B0013445B00CA1AD3B23033F5
:1017A000DBB21846FFF72CFE0D20FFF729FE0A20BA
:1017B000FFF726FE0CE0FB68DBB23033DBB21846E5
:1017C000FFF71EFE0D20FFF71BFE0A20FFF718FE95
:1017D000204B1B88002B3AD193E21E4B1B88C3F190
:1017E0001403FB602248FFF7EBFDFB68092B21D9AE
:1017F000FB68204AA2FB0323DB08DBB23033DBB2F9
:101800001846FFF7FDFDF9681A4BA3FB0123DA0820
:1018100013469B0013445B00CA1AD3B23033DBB2C9
:101820001846FFF7EDFD0D20FFF7EAFD0A20FFF750
:10183000E7FD0CE0FB68DBB23033DBB21846FFF7A4
:10184000DFFD0D20FFF7DCFD0A20FFF7D9FD0123A6
:10185000FB7515E11C00002014020020040200208A
:101860000008014018020020B29D2F3E1400002005
:1018700088480008CDCCCCCC0000C842A08601002E
:10188000B34B1B78002B0BD1B24B1B683B61B24BA7
:1018900004221A610120FFF73BFCAF4B04225A617E
:1018A000AB4B1B78002B00F0AF80AC4B1B6818468D
:1018B000FFF764FA0346AA491846FEF761FC03469F
:1018C0001A46A84B1A60A24B00221A70A648FFF7CE
:1018D00077FDA64B1B88C3F11403FB60FB68092B43
:1018E00021D9FB68A24AA2FB0323DB08DBB2303319
:1018F000DBB21846FFF784FDF9689D4BA3FB01237B
:10190000DA0813469B0013445B00CA1AD3B2303383
:10191000DBB21846FFF774FD0D20FFF771FD0A20BA
:10192000FFF76EFD0CE0FB68DBB23033DBB218462C
:10193000FFF766FD0D20FFF763FD0A20FFF760FD4E
:101940008A4B1B88132B24D8864B1B688949184661
:10195000FFF7BAFA0346002B14D0844B1B880133DF
:101960009AB2824B1A80814B1B881846FFF760FDA4
:101970005A20FFF78DFC8048FFF7CAFB0020FFF7D5
:1019800087FC06E00020FFF783FC42F21070FFF7AF
:10199000BFFB7548FFF714FD744B1B88C3F114039C
:1019A000FB60FB68092B21D9FB68714AA2FB03236A
:1019B000DB08DBB23033DBB21846FFF721FDF968F4
:1019C0006B4BA3FB0123DA0813469B0013445B0017
:1019D000CA1AD3B23033DBB21846FFF711FD0D201F
:1019E000FFF70EFD0A20FFF70BFD47E0FB68DBB2B7
:1019F0003033DBB21846FFF703FD0D20FFF700FD83
:101A00000A20FFF7FDFC39E05748FFF7D9FC574B98
:101A10001B88C3F11403FB60FB68092B21D9FB6809
:101A2000534AA2FB0323DB08DBB23033DBB2184698
:101A3000FFF7E6FCF9684E4BA3FB0123DA081346D7
:101A40009B0013445B00CA1AD3B23033DBB2184692
:101A5000FFF7D6FC0D20FFF7D3FC0A20FFF7D0FCE0
:101A60000CE0FB68DBB23033DBB21846FFF7C8FC92
:101A70000D20FFF7C5FC0A20FFF7C2FC0023FB7511
:101A8000344B1A683B69D31A3B603B683B4A93422C
:101A90003FF6C8AD3B68C3F5743390331846FFF783
:101AA00037FBBFE5364B01221A702A4B1B68BB601F
:101AB000294B04221A610120FFF72AFB264B04223E
:101AC0005A61234B1B78002B00F0CF80234B1B68FF
:101AD0001846FFF753F9034621491846FEF750FB15
:101AE00003461A461F4B1A60194B00221A70254BE9
:101AF00000221A701C48FFF763FC1C4B1B88C3F1C3
:101B00001403FB60FB68092B3ED9FB68184AA2FB53
:101B10000323DB08DBB23033DBB21846FFF770FC7F
:101B2000F968134BA3FB0123DA0813469B00134407
:101B30005B00CA1AD3B23033DBB21846FFF760FC41
:101B40000D20FFF75DFC0A20FFF75AFC29E000BFDB
:101B50001502002004020020000801401C020020A1
:101B6000B29D2F3E18000020884800081C0000206D
:101B7000CDCCCCCC0000C842A08601008FD00300A1
:101B80002002002014020020FB68DBB23033DBB2FD
:101B90001846FFF735FC0D20FFF732FC0A20FFF74F
:101BA0002FFC584B1B6858491846FFF78DF9034620
:101BB000002B17D0554B1B8801339AB2534B1A8018
:101BC000534B00221A70514B1B881846FFF730FC0C
:101BD0005A20FFF75DFB4F48FFF79AFA0020FFF706
:101BE00057FB06E00020FFF753FB42F21070FFF7AF
:101BF0008FFA464B1B88C3F11403FB604648FFF77E
:101C0000DFFBFB68092B21D9FB68444AA2FB0323B5
:101C1000DB08DBB23033DBB21846FFF7F1FBF968C3
:101C20003E4BA3FB0123DA0813469B0013445B00E1
:101C3000CA1AD3B23033DBB21846FFF7E1FB0D20EE
:101C4000FFF7DEFB0A20FFF7DBFB48E02F4B1B888A
:101C5000DBB23033DBB21846FFF7D2FB0D20FFF7C3
:101C6000CFFB0A20FFF7CCFB39E02B48FFF7A8FB9E
:101C7000264B1B88C3F11403FB60FB68092B21D999
:101C8000FB68264AA2FB0323DB08DBB23033DBB25E
:101C90001846FFF7B5FBF968204BA3FB0123DA08D0
:101CA00013469B0013445B00CA1AD3B23033DBB235
:101CB0001846FFF7A5FB0D20FFF7A2FB0A20FFF750
:101CC0009FFB0CE0FB68DBB23033DBB21846FFF75A
:101CD00097FB0D20FFF794FB0A20FFF791FB104BB9
:101CE0001A68BB68D31A7B607B680E4A93423FF642
:101CF00099AC7B68C3F5F42303F590731846FFF79E
:101D000007FA8FE4180000200000C8421C000020E1
:101D100020020020A086010088480008CDCCCCCC51
:101D2000040200201FA1070080B400AF00BFBD4621
:101D300080BC704780B400AF00BFFDE780B400AF47
:101D400000BFFDE780B400AF00BFFDE780B400AF87
:101D500000BFFDE780B400AF00BFBD4680BC704748
:101D600080B400AF00BFBD4680BC704780B400AFF8
:101D700000BFBD4680BC704780B400AF0123184649
:101D8000BD4680BC704780B582B000AF78603960D6
:101D900000F090FE034616221A604FF0FF331846FB
:101DA0000837BD4680BD80B582B000AF78604FF087
:101DB000FF317868FFF7E7FF00BFFDE780B586B029
:101DC00000AFF860B9607A6000237B610AE0AFF38E
:101DD00000800146BB685A1CBA60CAB21A707B699F
:101DE00001337B617A697B689A42F0DB7B68184635
:101DF0001837BD4680BD80B586B000AFF860B960C9
:101E00007A6000237B6109E0BB685A1CBA601B78CA
:101E10001846AFF300807B6901337B617A697B6888
:101E20009A42F1DB7B6818461837BD4680BD80B406
:101E300083B000AF78604FF0FF3318460C37BD46D3
:101E400080BC704780B483B000AF786039603B6875
:101E50004FF400525A60002318460C37BD4680BC30
:101E6000704780B483B000AF7860012318460C3708
:101E7000BD4680BC704780B485B000AFF860B960E3
:101E80007A60002318461437BD4680BC70470000B6
:101E900080B586B000AF7860144A154BD31A7B61C9
:101EA0007B693B61134B1B68002B02D1114B124A1B
:101EB0001A60104B1A687B6813443A699A4207D239
:101EC00000F0F8FD03460C221A604FF0FF3309E0E2
:101ED000084B1B68FB60074B1A687B681344054A74
:101EE0001360FB6818461837BD4680BD00500020BF
:101EF0000004000024020020780300200D488546DD
:101F0000FFF70AF80C480D490D4A002302E0D458A7
:101F1000C4500433C4188C42F9D30A4A0A4C002333
:101F200001E013600432A242FBD300F0C9FDFFF7C9
:101F30005FFBFEE70050002000000020E8010020C9
:101F4000144C0008E801002074030020FEE7002B79
:101F50002DE9F0471D46BBBF03F100431D4600239A
:101F60002D2388B01446B8BF1446129A109E1370E1
:101F7000149BDDF84CA023F02008B8F1460F05D0E3
:101F8000B8F1450F00D10136022300E0032307AA70
:101F9000049206AACDE902A2CDE9003622462B46DC
:101FA00000F04EFEB8F1470F074619D1119BDB0731
:101FB0000ED500EB06090022002320462946FEF735
:101FC000B7FD08B1CDF81C903022079B4B451ED3BE
:101FD0003846079B159ADB1B136008B0BDE8F087F5
:101FE000B8F1460F00EB0609E5D10378302B0AD192
:101FF0000022002320462946FEF79AFD18B9C6F1B3
:102000000106CAF80060DAF800309944D3E7591C99
:1020100007911A70D9E7F7B50029B6BF2D232B23F6
:10202000494209290270437029DD0DF107031D465D
:102030000A27B1FBF7F61A4607FB1614303402F8EC
:10204000014C0C46632C314603F1FF33F1DC303197
:10205000941E03F8011C2346411CAB420AD30DF128
:1020600009039B1AAC4288BF002302330344181AA9
:1020700003B0F0BD13F8016B01F8016FEDE73023F9
:1020800030318370C170031DF1E700002DE9F04F7E
:1020900091B00C46DDF8688016461F46054600F0F4
:1020A000BFFC036818460893FEF762F800230E93FE
:1020B000D8F800300990073323F0070303F1080232
:1020C00094F818A0D4F800B0C8F80020D3E900892B
:1020D00029F000430B93CDF828804FF0FF32DDE963
:1020E0000A01C4E912899C4BFEF754FD70BBDDE97F
:1020F0000A014FF0FF32984BFEF72EFD30BB002255
:10210000002340464946FEF71DFD10B12D2384F8FB
:102110004330924A924BBAF1470F8CBF9046984693
:1021200003234FF0000923612BF00403236033469F
:102130002146284600970FAA00F0D4F9013040F05C
:1021400090804FF0FF3011B0BDE8F08F42464B4613
:1021500040464946FEF71EFD48B14B46002BB8BF2E
:102160002D23804AB8BF84F843307F4BD3E76368A0
:102170000AF0DF015A1C3FD10623636000224BF4B2
:102180008063236006920EAACDE904A20DAA0392F1
:102190000DF13302CDE901326368424600932846CF
:1021A0004B460A91FFF7D3FE0A99804647290D99BD
:1021B00028D1C81C02DB6368994240DDAAF1020AFB
:1021C0005FFA8AFA5246013904F150000D91FFF787
:1021D00022FF0E9A81461318012A236102DC22682D
:1021E000D20701D5013323619DF83330002B9ED0F7
:1021F0002D2384F843309AE74729BFD1002BBDD166
:102200000123BAE7BAF1650FDCD9BAF1660F18D12C
:10221000002963680BDD216113B92268D00702D55C
:1022200001330B4423614FF00009A165DCE713B9CA
:102230002268D20701D50233F4E70123F2E74FF019
:10224000670A0E9B994205DB23682161D807EAD50E
:102250004B1CE7E70029CCBF0122C1F10202134465
:10226000E0E723685A0507D42369424631462846E9
:10227000B84701302BD164E7BAF1650F40F2DC803A
:10228000D4E9120100220023FEF752FC002833D0CB
:10229000012331462846354AB84701303FF451AF53
:1022A000DDE90D38434502DB2368D8070FD5DDE9AA
:1022B000082331462846B84701303FF442AF4FF07B
:1022C000000908F1FF3804F11A0AC84509DC23683F
:1022D0009B0700F10281E0680F9B9842B8BF184647
:1022E00031E70123524631462846B84701303FF4D2
:1022F00028AF09F10109E8E70D9B002B38DC012329
:1023000031462846194AB84701303FF41AAFDDE993
:102310000D3959EA030302D12368D907D7D5DDE97E
:10232000082331462846B84701303FF40AAF4FF042
:10233000000A04F11A0B0D9B5B42534501DC4B462E
:1023400093E701235A4631462846B84701303FF407
:10235000F8AE0AF1010AEEE7FFFFEF7F93480008AD
:102360008F4800089B480008974800089F480008CD
:10237000A36DDDF838A05345A8BF5346002B9946FE
:1023800036DC4FF0000B29EAE97904F11A02A36D5B
:102390000A93A3EB09035B4531DC0D9B9A453ADCBC
:1023A0002368DA0737D40D9BAAEB03090A9BAAEB33
:1023B00003039945A8BF9946B9F1000F33DC4FF0EC
:1023C000000829EAE97904F11A0B0D9BAAEB030333
:1023D000A3EB090343457FF77AAF01235A46314601
:1023E0002846B84701303FF4ACAE08F10108ECE7ED
:1023F000424631462846B8470130C2D1A1E6012302
:10240000314628460A92B84701303FF49AAE0A9AFC
:102410000BF1010BBBE73146DDE908232846B8473D
:102420000130C0D18DE60A9A4B46314628464244D7
:10243000B8470130C3D184E6DDF838A0BAF1010F06
:1024400001DCDB0736D50123424631462846B84732
:1024500001303FF476AEDDE9082331462846B8471F
:1024600001303FF46EAED4E91201002200230AF1DC
:10247000FF3AFEF75DFBC0B9534608F10102314651
:102480002846B84701300CD15BE601235A46314655
:102490002846B84701303FF454AE08F10108D04552
:1024A000F3DB4B4604F15002E0E64FF0000804F184
:1024B0001A0BF4E701234246E1E701234A4631467D
:1024C0002846B84701303FF43CAE08F10108E36804
:1024D0000F995B1A4345F0DCFDE64FF0000804F16C
:1024E0001909F4E72DE9F047164698468A680B6902
:1024F00007469342B8BF1346336091F843200C4619
:10250000DDF820900AB1013333602368990642BF99
:10251000336802333360256815F0060506D104F1EF
:10252000190AE36832689B1AAB422BDC94F84330FB
:102530002268003B18BF0123920630D4414638463A
:1025400004F14302C847013023D02368226903F015
:102550000603042B14BF002533684FF0000608BFA4
:10256000E56804F11A0408BFED1A54F8123C08BFDC
:1025700025EAE5759342C4BF9B1AED18B5421AD1FE
:10258000002008E00123524641463846C847013042
:1025900003D14FF0FF30BDE8F0870135C1E73020AF
:1025A000E11881F843005A1C94F845102244023384
:1025B00082F84310C2E70123224641463846C84705
:1025C0000130E6D00136D9E72DE9FF470F7E91466D
:1025D000782F80460C469A460C9E01F1430207D89C
:1025E000622F0AD8002F00F0D180582F00F0B88059
:1025F00004F1420684F842703AE0A7F16303152B18
:10260000F6D801A151F823F06126000875260008CC
:10261000F1250008F1250008F1250008F125000842
:1026200075260008F1250008F1250008F1250008AD
:10263000F1250008732700089F2600082D270008B1
:10264000F1250008F125000895270008F12500086C
:102650009F260008F1250008F1250008352700080D
:1026600033681A1D1B68326004F1420684F8423058
:1026700001239CE033682068191D3160060601D5EE
:102680001D6803E04506FBD5B3F90050002D03DAC1
:102690002D236D4284F843300A23584811E0216805
:1026A0003368080653F8045B02D4490648BFADB24C
:1026B0006F2F336014BF0A2308235048002184F889
:1026C00043106668002EA66005DB21682E4321F0CA
:1026D000040121604BD01646B5FBF3F103FB115703
:1026E000C75D06F8017D2F46BB420D46F4D9082B85
:1026F0000BD12368DF0708D5236961689942DEBFE3
:10270000302306F8013C06F1FF36921B22614B464E
:1027100021464046CDF800A003AAFFF7E3FE0130B2
:102720004AD14FF0FF3004B0BDE8F087236843F092
:10273000200323607827324884F845702368316885
:102740001F0651F8045B02D45F0648BFADB231608A
:10275000D90744BF43F0200323601DB11023ADE728
:102760002648E9E7236823F020032360F6E71646AE
:10277000BDE733682568181D616930602E061B6847
:1027800001D5196002E06806FBD5198000231646C2
:102790002361BCE7336800211A1D32601E6862683D
:1027A000304600F0B4F908B1801B606063682361B3
:1027B000002384F84330AAE732464946404623695D
:1027C000D0470130ADD023689B0713D4E068039B4A
:1027D0009842B8BF1846A6E701233246494640460C
:1027E000D04701309DD00135E36803995B1AAB42B5
:1027F000F2DCEBE7002504F11906F5E7A148000833
:10280000B2480008002310B50446C0E90033C0E90F
:102810000433836081814366C28183611946082243
:102820005C3000F0F4F80D4B246263620C4BA36241
:102830000C4BE3620C4B23630C4B9C4206D003F120
:102840006802944202D0D0339C4205D104F1580072
:10285000BDE8104000F058B910BD00BF892900083C
:10286000AB290008E3290008072A000828020020F5
:10287000024A0349034800F069B800BF2000002065
:10288000D94100083000002041680C4B10B5994236
:10289000044601D001F0A0FCA168094B994202D086
:1028A000204601F099FCE168064B994204D020468D
:1028B000BDE8104001F090BC10BD00BF2802002010
:1028C00090020020F802002010B50B4B0B4C0C4A74
:1028D00020461A6004210022FFF794FF04F16800EB
:1028E00001220921FFF78EFF04F1D0000222BDE88A
:1028F00010401221FFF786BF60030020280200204D
:1029000071280008014800F000B900BF69030020E9
:10291000014800F0FBB800BF6903002010B5044671
:10292000FFF7F0FF236A1BB1BDE81040FFF7F0BFCF
:10293000044B2362044B1B68002BF5D1FFF7C4FF47
:10294000F2E700BF89280008600300202DE9F84362
:102950000746884614460026D4E90195B9F10109D5
:1029600005D52468002CF7D13046BDE8F883AB8943
:10297000012B07D9B5F90E30013303D0294638466B
:10298000C04706436835E9E710B50C46B1F90E10AB
:1029900000F06CF80028ABBF636DA3891B1823F40B
:1029A0008053ACBF6365A38110BD2DE9F0411F4684
:1029B0008B890546DB050C46164605D50223002209
:1029C000B1F90E1000F040F8A389324623F4805389
:1029D000A38128463B46B4F90E10BDE8F04100F053
:1029E00057B810B50C46B1F90E1000F02DF8431C85
:1029F000A38915BF606523F4805343F48053A381FA
:102A000018BFA38110BDB1F90E1000F00DB8034638
:102A10000244934200D1704703F8011BF9E700001C
:102A2000004870476C01002038B50023054D04466E
:102A300008462B60FFF7FBF9431C02D12B6803B15A
:102A4000236038BD6403002038B5044608461146AB
:102A50000022054D2A601A46FFF70DFA431C02D1E9
:102A60002B6803B1236038BD6403002038B50446E9
:102A7000084611460022054D2A601A46FFF79EF9C6
:102A8000431C02D12B6803B1236038BD64030020CE
:102A900038B50446084611460022054D2A601A46FC
:102AA000FFF7A9F9431C02D12B6803B1236038BD9D
:102AB00064030020014B1868704700BF2C00002001
:102AC00070B500260C4D0D4C641BA410A64209D114
:102AD00001F0CEFE00260A4D0A4C641BA410A6424B
:102AE00005D170BD55F8043B98470136EEE755F81F
:102AF000043B98470136F2E70C4C00080C4C0008E8
:102B00000C4C0008104C0008704770477047034693
:102B100010B5C9B202449342184601D1002003E027
:102B2000047801338C42F6D110BD2DE9F74F0369CB
:102B30000C690746A3427EDB013CA30000F11405AB
:102B400001F11408009305EB8403019358F8243035
:102B500055F8242001339A42B2FBF3F608EB8409BE
:102B60002ED34FF0000AC446AE46D3465CF8043B71
:102B700098B206FB00A01B0C020C06FB0323DEF838
:102B8000002080B292B2121A5A44DEF800004FEAD6
:102B9000134A9BB2C3EB224303EB104392B242EAC7
:102BA0000342E1454FEA234B4EF8042BDED2009B53
:102BB000EB582BB9019B043B9D421A462FD33C6135
:102BC000384601F081F9002825DB2946002058F815
:102BD000042BD1F800C01FFA82FE1FFA8CF3A3EB7E
:102BE0000E030344120CC2EB234202EB1C429BB2C5
:102BF00043EA0243C1454FEA224041F8043BE6D292
:102C000055F8242005EB840322B9043B9D421A4663
:102C10000BD33C610136304603B0BDE8F08F12683B
:102C2000043B002ACBD1013CC6E71268043B002AD2
:102C3000EFD1013CEAE70020EEE7000000000000D1
:102C40002DE9F04F14461D46C76997B08146CDE97E
:102C50000645239E7FB9102000F00EFE0246C9F8FB
:102C60001C0020B9EF21AC4BAC4801F0FBFAC0E9E5
:102C700001770760C760D9F81C30196859B15A68E4
:102C8000012393404A608B60484600F0EBFE00222F
:102C9000D9F81C301A602B1EAFBF0023012223F08D
:102CA00000430793A8BF3360DDF81C809C4BB8BF7E
:102CB000326033EA080312D142F20F73229A136092
:102CC000C8F31303234300F05E85249BDFF854A26E
:102CD000002B00F060850AF1030300F05ABDDDE926
:102CE0000623CDE90C23DDE90C0100220023FDF7CA
:102CF0001FFF074658B10123229A1360249B13B18A
:102D0000894B249A1360DFF824A200F044BD14AB71
:102D1000019315AB00934846DDE90C2301F084F9DB
:102D2000C8F30A560390002E78D0DDE90C010D9B04
:102D3000A6F2FF36C3F3130343F07F5343F440136B
:102D40001297194600227A4BFDF7D2FA6CA3D3E909
:102D50000023FDF785FC6CA3D3E90023FDF7CAFA35
:102D6000044630460D46FDF711FC69A3D3E9002364
:102D7000FDF776FC02460B4620462946FDF7BAFAD7
:102D800004460D46FDF71CFF00220746002320469F
:102D90002946FDF7D7FE40B13846FDF7F7FB22463E
:102DA0002B46FDF7C5FE00B9013F162F54D8DDE9CB
:102DB0000C01604B03EBC703D3E90023FDF7C2FE10
:102DC00000284BD00023013F0F93149B9B1B5A1EDE
:102DD00049BFC3F10103002304930023099254BFA8
:102DE00004930993002F3BDB099B0E973B44099307
:102DF00000230A93209B092B65D8052BC4BF043BF5
:102E00002093209BC8BF0024A3F10203D8BF012454
:102E1000032B64D8DFE803F05355382CDDE9146345
:102E20001E4406F23243202BC1BFC3F1400308FA0F
:102E300003F806F2124324FA03F3D6BFC3F12003CA
:102E400048EA030004FA03F0FDF790FB0122A1F128
:102E5000F873013E129274E70123B5E70F90B4E7CF
:102E6000049BDB1B04937B420A9300230E93C1E770
:102E700001230B93219B07EB030B0BF10103012BA8
:102E80000893B8BF012306E001230B93219B002B7D
:102E900028DD9B46089300210422D9F81C0002F18A
:102EA00014059D4226D94160484600F09BFD8246AC
:102EB000002843D1024640F2AF111F4BD4E6002355
:102EC000E3E70023D5E7012400230B9420934FF080
:102ED000FF3B00221223CDF820B02192DBE7012333
:102EE0000B93F4E74FF0010B5B46CDF820B0CDF823
:102EF00084B0D0E701315200D1E700BFAFF30080CA
:102F000061436F63A787D23FB3C8608B288AC63FEF
:102F1000FB799F501344D33FD0480008E74800088E
:102F20000000F07FCC480008A04800089F48000837
:102F30000000F83F384A00083F490008D9F81C3023
:102F40001860089B0E2B00F2A180002C00F09E80E0
:102F5000002F33DD9C4B07F00F0203EBC203F80593
:102F6000D3E90034CDE910344FEA271416D5DDE952
:102F70000C01964B0326D3E90823FDF79BFCCDE912
:102F8000060104F00F04914D54B9DDE91023DDE989
:102F90000601FDF78FFCCDE9060128E00226F2E7E5
:102FA000E10708D5DDE91001D5E90023FDF758FB5D
:102FB000CDE91001013664100835E5E700F0AF8077
:102FC000DDE90C017C42804B04F00F0203EBC203ED
:102FD000D3E90023FDF744FB02260023CDE90601D7
:102FE0007A4D2411002C40F08F80002BD3D1DDE9E5
:102FF00006450F9B002B00F09480002220462946B6
:10300000734BFDF79FFD002800F08B80089B002B81
:1030100000F08780BBF1000F34DD204600222946F6
:103020006C4BFDF71DFB5C46CDE9060107F1FF384F
:1030300001363046FDF7AAFADDE90623FDF710FB5D
:103040000022654BFDF756F90546A1F15076002C9C
:103050006AD1DDE906010022604BFDF749F902461D
:103060000B46CDE906232A463346FDF789FD0028A5
:1030700040F09882DDE906012A4606F10043FDF79B
:1030800061FD38BBDDE90C34CDE90634159B002B1E
:10309000C0F257810E2F00F354814B4B03EBC70353
:1030A000D3E90034CDE90434219B002B80F2E58084
:1030B000089B002B00F3E1800CD1DDE90401002224
:1030C000464BFDF7CDFADDE90623FDF74FFD00285D
:1030D00000F0668200242546219B56466FEA0308CD
:1030E00000272146484600F0BDFC002D00F0BD80C1
:1030F0002FB1AF4203D03946484600F0B3FC294611
:10310000484600F0AFFCB0E0E20705D5D5E9002362
:10311000FDF7A6FA012301366410083562E702269E
:1031200065E7B846089C84E7274B0B9903EBC4037B
:1031300053E902235444002954D000202849FDF7C4
:10314000B9FB33462A46FDF7D3F85646CDE91001C0
:10315000DDE90601FDF734FD0546FDF717FA0246E5
:103160000B46DDE90601FDF7C3F802460B46303594
:10317000CDE90623DDE9102306F8015BFDF7E2FC4B
:10318000002872D1DDE9062300201149FDF7B0F8CF
:10319000DDE91023FDF7D6FC002840F0B480A642FC
:1031A0003FF470AFDDE9100100220A4BFDF758FA39
:1031B0000022CDE91001DDE90601064BFDF750FACA
:1031C000CDE90601C4E700BF384A0008104A0008EC
:1031D0000000F03F0000244000001C4000001440AC
:1031E0000000E03F31462846FDF73AFA5646CDE961
:1031F00010011394DDE90601FDF7E2FC0546FDF739
:10320000C5F902460B46DDE90601FDF771F80246F5
:103210000B46303506F8015BA642CDE906234FF098
:10322000000224D1DDE91001AE4BFDF763F8024640
:103230000B46DDE90601FDF7A3FC002863D1DDE9BB
:1032400010230020A749FDF753F802460B46DDE99D
:103250000601FDF777FC00283FF414AF139E731EA0
:10326000139316F8013C302BF8D047463BE09E4BB9
:10327000FDF7F6F9CDE90601BCE75646DDE906455E
:10328000DDE9042320462946FDF714FBFDF798FCF1
:103290008046FDF77BF9DDE90423FDF7E1F90246FD
:1032A0000B4620462946FDF723F808F13004089D17
:1032B00006F8014BA6EB0A04A54202460B4633D1A1
:1032C000FDF718F8DDE9042304460D46FDF758FC28
:1032D000C0B9DDE9042320462946FDF729FC10B1D9
:1032E00018F0010F0ED14846039900F0BBFB0023F4
:1032F0003370229B01371F60249B002B00F04B8210
:103300001E6048E2B84633461E4613F8012D392A9E
:1033100006D19A45F8D1302208F101088AF8002038
:103320001A7801321A70A0E700226F4BFDF798F966
:103330000022002304460D46FDF7FAFB00289FD02B
:10334000D1E70B9A002A00F0EA80209A012A00F3C4
:10335000CD80129A002A00F0C18003F233430A9C08
:10336000049E049A01211A440492099A48461A4478
:10337000099200F02BFC054666B1099B002B09DD84
:10338000B342A8BF3346049AF61AD21A0492099A95
:10339000D31A09930A9B0BB30B9B002B00F0C6803A
:1033A000002C00F0C08029462246484600F0C6FCAA
:1033B000039A01460546484600F01EFC03998046E4
:1033C000484600F04FFB0A9B1B1B0A9300F0B1809C
:1033D00041460A9A484600F0B1FC03900121484654
:1033E00000F0F4FB0E9B0446002B00F0D8811A4637
:1033F0000146484600F0A2FC209B0446012B00F346
:103400009F80069B002B40F09780079BC3F313031C
:10341000002B40F09380079B23F000431B0D1B05FE
:1034200033B1049B01330493099B013309930123B6
:103430000A930E9B002B00F0B881236904EB8303F1
:10344000186900F077FBC0F12000099B184410F0C8
:103450001F0000F08280C0F12003042B73DD049B69
:10346000C0F11C0003440493099B064403440993E0
:10347000049B002B05DD1A464846039900F0B8FC72
:103480000390099B002B05DD21461A46484600F0B3
:10349000AFFC04460F9B002B61D02146039800F03F
:1034A00013FD00285BDA00230A224846039900F046
:1034B000FBFA0B9B07F1FF380390002B00F077819C
:1034C000294600230A22484600F0EEFABBF1000F1D
:1034D00005466FDC209B022B49DC6BE0149BC3F19B
:1034E00036033CE70000E03F00002440089B5C1EE0
:1034F0000A9BA34209DB1C1B089B002BBFF630AFC5
:10350000049B089A9E1A00232BE70A9B0E9AE31A43
:103510001A440A94049E0024089B0E9221E70A9CF8
:10352000049E0B9D28E7DDF80C8051E70A9A039969
:1035300050E7CDF80C8051E7002379E7069B77E749
:1035400000230A9379E793D0049A1C331A44049217
:10355000099A1E441A4409928AE70346F4E7089B35
:10356000B846002B20DC9B46209B022B1EDDBBF1C6
:10357000000F7FF4B1AD21465B460522484600F0BE
:1035800093FA01460446039800F09EFC00287FF75A
:10359000A3AD5646312308F1010806F8013B9FE52B
:1035A000B846089C2546F4E7DDF820B00B9B002BBD
:1035B00000F00181002E05DD29463246484600F024
:1035C00017FC05460A9B002B5CD04846696800F052
:1035D00009FA064628B9024640F2EF21804BFFF770
:1035E00043BB2A6905F10C01023292000C3000F055
:1035F0002BFE01223146484600F0FAFB2F460546D5
:103600000AF1010304930AEB0B030A93069B03F0F0
:1036100001030993049B2146039803F1FF3BFFF745
:1036200084FA034639463033069003980B9300F032
:103630004BFC2A4608902146484600F061FCC268CF
:1036400006460B9B02BB0146039800F03DFC024678
:103650000B9B31464846CDE90B3200F003FA209B24
:103660000C9A049E42EA0301099B19430B9B0DD15E
:10367000392B27D0089A002A01DD069B31338BF8BD
:1036800000302EE52846B9E70122E2E70899002933
:1036900004DB209801430998014320D1002AEEDD84
:1036A000012203994846049300F0A2FB21460390AF
:1036B00000F00AFC0028049B02DCE0D1DA07DED52A
:1036C000392BDAD139238BF8003033461E4616F8F1
:1036D000012C013B392A4ED001321A7001E5002A33
:1036E00003DD392BEED00133C9E7049A0A9902F8B9
:1036F000013C8A4228D000230A220399484600F060
:10370000D3F9AF4203904FF000034FF00A0239465D
:10371000484607D100F0C8F907460546049B013327
:10372000049377E700F0C0F92946074600230A22F0
:10373000484600F0B9F90546F0E7BBF1000FCCBFF1
:103740005E46012600275644012203994846049309
:1037500000F04EFB2146039000F0B6FB0028B4DCDD
:1037600002D1049BDB07B0D433461E4613F8012D6B
:10377000302AFAD0B5E49A45A8D1312308F10108DE
:103780008AF80030ADE4249BDFF858A01BB10AF1A1
:103790000803249A1360504617B0BDE8F08F209BB1
:1037A000012B7FF72EAE0E9B0A9301204DE6BBF155
:1037B000000F7FF7D9AE564621460398FFF7B5F9BB
:1037C00000F1300306F8013BA6EB0A029345B4DD95
:1037D00000230A224846039900F066F90390EBE7BC
:1037E0003F490008C348000838B50546002940D0C5
:1037F00051F8043C0C1F002BB8BFE41800F0E6F8A9
:103800001C4A136833B9636014602846BDE8384029
:1038100000F0E2B8A34208D9206821188B4201BF0A
:1038200019685B6809182160EDE71A465B680BB1FF
:10383000A342FAD911685018A0420BD12068014464
:10384000501883421160E0D118685B68084410602A
:103850005360DAE702D90C232B60D6E720682118E1
:103860008B4201BF19685B6809182160636054606E
:10387000CBE738BD70030020024B0146186800F00A
:1038800025B800BF2C00002070B50F4E0C463168E3
:10389000054611B900F0C8FC30602146284600F00A
:1038A000C3FC431C03D14FF0FF34204670BDC41C41
:1038B00024F00304A042F8D0211A284600F0B4FCFA
:1038C0000130F2D1EFE700BF6C0300202DE9F8438F
:1038D000CD1C25F0030508350C2D38BF0C25002D17
:1038E000064601DBA94204D90C2333600020BDE861
:1038F000F883DFF8D48000F069F8D8F800301C466F
:1039000044BB29463046FFF7BFFF431C044658D14D
:10391000D8F800402746002F43D1002C4BD0236815
:103920003946304604EB030900F07EFC814542D164
:10393000216830466D1A2946FFF7A6FF01303AD0BC
:1039400023682B442360D8F800305A6862BBC8F85B
:1039500000700FE02268521B20D40B2A17D961197E
:10396000A342256018BF5960636808BFC8F80010FB
:1039700062514B60304600F02FF804F10B00231D1C
:1039800020F00700C21A1CBF1B1AA350AFE76268E1
:10399000A3420CBFC8F800205A60EBE723466468D6
:1039A000AEE73C467F68B6E71A465B68A342FBD1A8
:1039B00000235360DEE70C233046336000F00CF840
:1039C00094E70560D6E700BF700300200148FFF7C9
:1039D0009CB800BF680300200148FFF797B800BFFC
:1039E0006803002070B5C66904460D4676B91020FC
:1039F000FFF742FF0246E06120B96B21174B1848E0
:103A000000F030FCC0E901660660C660E669F36854
:103A100083B1E369DB6853F82500B8B9012101FAE5
:103A200005F6721D2046920000F03AFC60B1C0E934
:103A300001560EE021220421204600F031FCE3690A
:103A4000F060DB68002BE4D1002070BD026843F811
:103A500025200023C0E90333F7E700BFD048000862
:103A60005049000870B5C66905460C4676B9102065
:103A7000FFF702FF0246E86120B98F21084B094891
:103A800000F0F0FBC0E901660660C6603CB1EB697E
:103A90006268DB6853F82210216043F8224070BD51
:103AA000D0480008504900082DE9F04107460C466F
:103AB0001E4600200D6901F1140CDCF800300130C5
:103AC00099B202FB01611E0C0B0C02FB063389B29A
:103AD00001EB034185424FEA13464CF8041BECDC32
:103AE0000EB3A368AB4219DC616838460131FFF7B9
:103AF00079FF804628B90246BA210C4B0C4800F0E9
:103B0000B1FB226904F10C01023292000C3000F08A
:103B10009BFB21463846FFF7A5FF444604EB85038F
:103B200001355E6125612046BDE8F0813F4900080E
:103B3000504900080346B0F5803F3ABF0304102007
:103B40000020B3F1807F3CBF1B020830B3F1805FDF
:103B50003CBF1B010430B3F1804F3CBF9B000230DF
:103B6000002B05DB13F0804F00F1010008BF20207F
:103B700070470368024613F007000BD0D90721D421
:103B8000980749BF5B089B08012013605CBF0220B7
:103B90001360704799B209B910201B0CD9B209B94A
:103BA00008301B0A190704BF1B090430990704BF1A
:103BB0009B080230D90703D45B0800F1010003D051
:103BC00013607047002070472020704710B50C46E6
:103BD0000121FFF707FF024628B940F24511044BC7
:103BE000044800F03FFB01234461036110BD00BFA6
:103BF0003F490008504900082DE9F04F17460A696F
:103C00003B6989469A42A2BF3B460F4699463D69A9
:103C1000D9F810A0BB68796805EB0A06B34285B0F5
:103C2000B8BF0131FFF7DEFE30B902464FF4B17183
:103C3000404B414800F016FB00F1140423460022DB
:103C400004EB860E734520D307F1140809F1140123
:103C500008EB850501EB8A030293EB1B153B23F070
:103C6000030304331537BD4238BF04230193029B7D
:103C700003918B420CD8002E03DD5EF8043D002B2F
:103C800055D0066105B0BDE8F08F43F8042BD9E7A5
:103C9000B1F800A0BAF1000F1FD0C446A14600271A
:103CA0005CF8042BD9F800301FFA82FB9BB20AFBA8
:103CB0000B333B44D9F80070120C3F0C0AFB027224
:103CC00002EB13429BB243EA024365454FEA1247B7
:103CD00049F8043BE4D8019BE750039B0431B3F857
:103CE0000290B9F1000F20D04746A4464FF0000AD9
:103CF0002368B7F800B0BCF802209BB209FB0B2286
:103D0000524443EA02434CF8043B57F8043B4FEA61
:103D1000134ABCF80030BD4209FB0A3303EB1243DF
:103D20004FEA134AE5D8019AA35004349FE7013EB5
:103D3000A1E700BF3F490008504900082DE9F843BA
:103D4000154612F0030207460E4607D0254C013AED
:103D5000002354F82220FFF7A7FE0646AD103DD001
:103D6000FC697CB91020FFF787FD0246F86128B98D
:103D700040F2B3111C4B1D4800F074FAC0E9014435
:103D80000460C460D7F81C80D8F808404CB940F2F1
:103D900071213846FFF71AFF00230446C8F80800CF
:103DA00003604FF00009EB070AD53146224638463A
:103DB000FFF722FF804631463846FFF753FE46465E
:103DC0006D100BD0206838B9224621463846FFF7DF
:103DD00013FF2060C0F800900446E4E73046BDE8D9
:103DE000F88300BF004A0008D04800085049000886
:103DF0002DE9F0470C46074691462369496803EBD5
:103E00006218A3684FEA621A08F10106B3420BDB9D
:103E10003846FFF7E7FD054648B902464FF4EF7113
:103E2000274B284800F01EFA01315B00EEE7002323
:103E300000F1140100F110021846534533DB2069EC
:103E40002AEAEA7A04F1140319F01F0901EB8A0146
:103E500003EB800C2BD08A460022C9F1200E186893
:103E600000FA09F010434AF8040B53F8042B9C4560
:103E700022FA0EF2F3D8ACEB0403153B23F0030354
:103E8000043304F11500604588BF0423CA500AB109
:103E900008F10206013E384621462E61FFF7E2FD99
:103EA0002846BDE8F08742F8040F0133C5E704391E
:103EB00053F8042B9C4541F8042FF9D8EAE700BFDA
:103EC0003F4900085049000803460A69006930B5B7
:103ED000801A0ED11433143103EB820401EB8201FA
:103EE00054F8045D51F8042D954203D005D24FF0EB
:103EF000FF3030BDA342F3D3FBE70120F9E7000018
:103F00002DE9F74F89460646114648461446FFF705
:103F1000DBFF051E12D129463046FFF763FD02463E
:103F200028B940F237213E4B3E4800F09BF901236F
:103F3000C0E90435104603B0BDE8F08FBCBF4B4666
:103F4000A1463046D9F80410BABF1C460125002509
:103F5000FFF748FD024618B940F24521304BE3E730
:103F600000F1140BD9F8107009F11003C5604FF07F
:103F7000000C09F11405D946266904F1140E05EB6D
:103F800087080EEB86060193019B5EF8040B53F83D
:103F900004AF81B201931FFA8AF35B1A000C6344E9
:103FA000C0EB1A4000EB23409BB243EA0043764546
:103FB0004FEA204C49F8043BE6D8331B153B23F06D
:103FC000030315340433A64238BF04231D445B4465
:103FD0001E462C4644450ED308F10301491B21F02F
:103FE0000301033DA84538BF00210B4453F8041DCD
:103FF00099B117619EE7E64654F8041B1FFA81FC4D
:10400000F444080C714400EB2C4089B241EA0041B1
:104010004FEA204C46F8041BDCE7013FE6E700BF0F
:104020003F490008504900082DE97343012190469B
:104030009946089EFFF7D6FC044630B9024640F286
:104040000F31234B234800F00DF9C9F30A55C9F38A
:1040500013030DB143F480130193B8F1000324D08E
:1040600068460093FFF785FDDDE90012D8B1C0F185
:10407000200302FA03F30B43C24063610192019BE8
:10408000002B0CBF01220222A3612261ADB1A5F277
:10409000334505443560C0F13500099B1860204662
:1040A00002B0BDE870836161E9E701A8FFF761FD37
:1040B000019B012263612030E7E7A0F2324004EB6C
:1040C000820330601869FFF735FDC0EB4210E4E76A
:1040D0003F49000850490008B1F90C20F8B516070F
:1040E00005460C4654D44B68002B02DC0B6C002BAD
:1040F00048DDE66A002E45D0002312F480522F6876
:10410000216A2B6030D0626DA389590705D5636899
:10411000D21A636B0BB1236CD21A00232846E66ACD
:10412000216AB047431CA38906D129681D292BD8D1
:10413000284ACA40D60727D5002262602269D904DE
:10414000226004D5421C01D12B6803B96065616B04
:104150002F60B9B104F14403994202D02846FFF719
:1041600043FB002363630DE001232846B04702466A
:10417000501CC9D12B68002BC6D01D2B01D0162B8B
:104180001DD12F60002021E043F040031BB21AE054
:104190000F69002FF6D0930718BF00230E6808BFE1
:1041A0004B69F61B0F608B60002EEBDD33463A4601
:1041B0002846216AD4F828C0E047002807DCB4F973
:1041C0000C3043F040034FF0FF30A381F8BD0744AB
:1041D000361AE9E70100402038B50B6905460C4660
:1041E00013B90025284638BD18B1036A0BB9FEF78C
:1041F00095FBB4F90C30002BF3D0626ED00704D4D9
:10420000990502D4A06DFEF780FC28462146FFF7F1
:1042100063FF636E0546DA07E4D4A3899B05E1D406
:10422000A06DFEF773FCDDE738B50023054D0446AD
:1042300008462B60FDF72CFE431C02D12B6803B10E
:10424000236038BD640300200A44914200F1FF332B
:1042500000D1704710B511F8014B914203F8014F9E
:10426000F9D110BD1FB514461A46094B05461B6807
:10427000D8684CB1074BCDE9013400912B46064973
:1042800000F042F800F052F8044B1C46F3E700BF80
:104290002C000020B3490008C0490008EE4900087E
:1042A00070B5A1FB025434B92946FFF70FFB06464F
:1042B00028B9304670BD0C2200260260F9E72A4674
:1042C0002146FEF7A4FBF4E782B001B901A942B18F
:1042D0004BB113780B601278101E18BF012002B08A
:1042E00070471046FBE76FF00100F8E70346084609
:1042F00041B1FF2A04D98A224FF0FF301A6070477B
:1043000001200A70704700000EB403B5014603ABEC
:10431000054853F8042B0068019300F035F802B00B
:104320005DF804EB03B070472C000020062008B5B0
:1043300000F0FEF90120FDF736FD936810B4013B53
:10434000002B936007DA9469A34201DB0A2902D1AA
:1043500010BC00F031B91368581C10601970084681
:1043600010BC7047F8B506460F461446D518AC4247
:1043700001D1002007E03A46304614F8011BFFF750
:10438000DCFF431CF3D1F8BD2DE9F04F0D46144678
:10439000984606469DB018B1036A0BB9FEF7BEFAFF
:1043A0006B6ED90705D4AB899A0502D4A86DFEF7C8
:1043B000ACFBAB891B0701D52B699BB9294630465D
:1043C00000F038F970B16B6EDC0704D54FF0FF30A8
:1043D0001DB0BDE8F08FAB899805F7D4A86DFEF746
:1043E00095FBF3E70023099320238DF82930302330
:1043F0004FF00109CDF80C80DFF8A8818DF82A3044
:1044000023469A4613F8012B0AB1252AF9D1BAEBB3
:10441000040B0BD05B46224629463046FFF7A2FF2D
:10442000013000F0A780099A5A4409929AF80030A6
:10443000002B00F09F8000234FF0FF32CDE90523D1
:104440000AF1010A049307938DF853301A935446E6
:10445000052214F8011B5348FEF759FB049AD8B9FA
:10446000D10644BF20238DF85330130744BF2B23BC
:104470008DF853309AF800302A2B15D0544600207E
:104480004FF00A0C079A214611F8013B303B092BEB
:104490004BD9B0B1079214E0A0EB080309FA03F37B
:1044A0001343A2460493D2E7039B191D1B68039193
:1044B000002BBBBF5B4242F0020207930793B8BFD9
:1044C000049223782E2B0AD163782A2B32D1039BB6
:1044D00002341A1D1B68039243EAE3730593DFF865
:1044E000C8A0032250462178FEF711FB38B14022C4
:1044F000049BA0EB0A00824013430134049314F898
:10450000011B062229488DF82810FEF700FB002821
:104510003FD0274B1BBB039B073323F00703083314
:104520000393099B3B4409936AE70C4601200CFB6B
:104530000232A8E700234FF00A0C19460134059314
:10454000204610F8012B303A092A03D9002BC6D097
:104550000591C4E7044601230CFB0121F0E703ABFE
:1045600000932A463046134B04A9FDF78FFD0746FA
:10457000781CD6D16B6ED90705D4AB899A0502D4C5
:10458000A86DFEF7C3FAAB895B063FF51FAF09982C
:104590001EE703AB00932A463046064B04A9FEF7FC
:1045A00013F8E4E7EF490008F5490008F949000865
:1045B0008D20000865430008F8B50E4614460546F0
:1045C00018B1036A0BB9FEF7A9F9A369A360A3891F
:1045D0001A0701D5236943B92146284600F02AF875
:1045E00018B14FF0FF373846F8BD23682269F6B29C
:1045F000981A63693746834205DC21462846FFF74F
:10460000EBFD0028EDD1A368013BA36023685A1C91
:1046100022601E706269431C9A4204D0A389DB07A2
:10462000E1D50A2EDFD121462846FFF7D5FD002827
:10463000D9D0D6E738B5294B054618680C4618B1CD
:10464000036A0BB9FEF76AF9B4F90C30190722D4E2
:10465000DA0607D409222A6043F040034FF0FF3006
:10466000A38133E0580712D5616B41B104F14403D3
:10467000994202D02846FFF7B7F800236363A38965
:1046800023F02403A3810023636023692360A389AB
:1046900043F00803A38123694BB9A38903F4207372
:1046A000B3F5007F03D02146284600F082F8B4F924
:1046B0000C3013F001020AD00022A260626952425B
:1046C000A261226942B913F08000C5D138BD9907B3
:1046D00058BF6269A260F4E70020F7E72C000020D1
:1046E0001F2938B505460C4604D9162303604FF040
:1046F000FF3038BDC26B12B152F821304BB9284699
:1047000000F030F8224601462846BDE8384000F067
:1047100017B8012B0AD0591C03D1162303600120BE
:10472000E7E70021204642F8241098470020E0E700
:10473000024B01461868FFF7D3BF00BF2C000020D2
:1047400038B50023064D0446084611462B60FDF798
:104750001AFB431C02D12B6803B1236038BD00BF94
:1047600064030020FDF708BB70B50C46B1F90E10CC
:10477000154600291E4696B00CDAA389002113F0D5
:10478000800F14BF40234FF48063002031602B6002
:1047900016B070BD6A4600F049F80028EDDB0199BB
:1047A00001F47041A1F50053594259414FF480631F
:1047B000EBE78B89F7B59D0706460C4607D504F154
:1047C0004703236023610123636103B0F0BD6A46A0
:1047D00001ABFFF7C9FF009F054639463046FFF79A
:1047E00075F848B9B4F90C309A05EED423F00303F8
:1047F00043F00203A381E2E7A389C4E9040743F07D
:104800008003A381019B20605BB13046B4F90E1098
:1048100000F01EF828B1A38923F0030343F001033D
:10482000A381A3891D43A581CFE7000038B50023EC
:10483000064D0446084611462B60FDF703FB431C5A
:1048400002D12B6803B1236038BD00BF6403002090
:1048500038B50023054D044608462B60FDF701FBE3
:10486000431C02D12B6803B1236038BD64030020D0
:10487000F8B500BFF8BC08BC9E467047F8B500BF4D
:08488000F8BC08BC9E4670471D
:10488800436172203A2000494E4600696E66004E28
:10489800414E006E616E00300030313233343536AF
:1048A8003738394142434445460030313233343594
:1048B8003637383961626364656600496E66696EC9
:1048C800697479004E614E005245454E54206D6121
:1048D8006C6C6F6320737563636565646564002F32
:1048E8006275696C642F676E752D746F6F6C732DAC
:1048F800666F722D73746D33325F31332E332E72BF
:10490800656C312E32303234303932362D31373110
:10491800352F7372632F6E65776C69622F6E6577BA
:104928006C69622F6C6962632F7374646C69622F9F
:1049380064746F612E630042616C6C6F63207375E1
:1049480063636565646564002F6275696C642F67CD
:104958006E752D746F6F6C732D666F722D73746D19
:1049680033325F31332E332E72656C312E32303252
:1049780034303932362D313731352F7372632F6E1B
:1049880065776C69622F6E65776C69622F6C6962F6
:10499800632F7374646C69622F6D707265632E6324
:1049A800004300504F534958002E002C2066756E66
:1049B8006374696F6E3A2000617373657274696F0E
:1049C8006E2022257322206661696C65643A206630
:1049D800696C6520222573222C206C696E65202560
:1049E80064257325730A00232D302B2000686C4C36
:1049F800006566674546470005000000190000008D
:104A08007D000000000000000080E03779C34143CA
:104A1800176E05B5B5B89346F5F93FE9034F384D1C
:104A2800321D30F94877825A3CBF737FDD4F1575C8
:104A3800000000000000F03F0000000000002440DB
:104A480000000000000059400000000000408F40B6
:104A5800000000000088C34000000000006AF84021
:104A68000000000080842E4100000000D012634145
:104A78000000000084D797410000000065CDCD41BB
:104A8800000000205FA00242000000E8764837429C
:104A9800000000A2941A6D42000040E59C30A2423A
:104AA8000000901EC4BCD64200003426F56B0C43AF
:104AB8000080E03779C3414300A0D8855734764356
:104AC80000C84E676DC1AB43003D9160E458E143B7
:104AD800408CB5781DAF154450EFE2D6E41A4B442C
:104AE80092D54D06CFF08044F64AE1C7022DB54471
:104AF800B49DD9794378EA44002020202020202042
:104B08002020282828282820202020202020202075
:104B18002020202020202020208810101010101085
:104B280010101010101010101004040404040404D1
:104B3800040404101010101010104141414141416B
:104B4800010101010101010101010101010101014D
:104B5800010101011010101010104242424242425D
:104B6800020202020202020202020202020202021D
:104B780002020202101010102000000000000000C5
:104B8800000000000000000000000000000000001D
:104B9800000000000000000000000000000000000D
:104BA80000000000000000000000000000000000FD
:104BB80000000000000000000000000000000000ED
:104BC80000000000000000000000000000000000DD
:104BD80000000000000000000000000000000000CD
:104BE80000000000000000000000000000000000BD
:0C4BF800000000000000000000000000B1
:084C04006CB5FF7F0100000008
:044C0C005501000846
:044C10003101000866
:104C14003F0006005B004F0066006D007D0027002A
:104C24007F006F00000080BF000080BF1400000000
:104C340000000000030000002802002030000020D3
:104C4400000000002802002090020020F80200204A
:104C54000000000000000000000000000000000050
:104C64000000000000000000000000000000000040
:104C74000000000000000000000000000000000030
:104C840000000000000000000000000043000000DD
:104C94000000000000000000000000000000000010
:104CA40000000000000000000000000043000000BD
:104CB40000000000000000000000000000000000F0
:104CC400000000000000000000000000430000009D
:104CD40000000000000000000000000000000000D0
:104CE400000000000000000000000000430000007D
:104CF40000000000000000000000000000000000B0
:104D0400000000000000000000000000430000005C
:104D1400000000000000000000000000000000008F
:104D2400000000000000000000000000430000003C
:104D3400000000000000000000000000000000006F
:104D4400000000000000000000000000430000001C
:104D5400000000000000000000000000000000004F
:104D6400000000000000000000000000ED42000808
:104D7400C942000800000000004B0008B1490008C7
:104D8400EE490008EE490008EE490008EE49000823
:104D9400EE490008EE490008EE490008EE49000813
:104DA400EE490008FFFFFFFFFFFFFFFFFFFFFFFFCC
:104DB400FFFF000001004153434949000000000087
:104DC40000000000000000000000000000000000DF
:104DD4000000000000004153434949000000000066
:104DE40000000000000000000000000000000000BF
:084DF4000000000000000000B7
:0400000508001EFDD4
:00000001FF
